S0140000746F6D61746F5F636C6F636B2E7372656311
S11300000C945A000C9477000C9477000C947700AD
S11300100C9477000C9477000C9477000C94770080
S11300200C9477000C9477000C9477000C94540291
S11300300C9477000C9477000C94FB010C947700DB
S11300400C9477000C9477000C9477000C94770050
S11300500C9477000C9477000C9477000C94770040
S11300600C9477000C9477000C9477000C94770030
S11300700C9477000C9477000C9477000C94770020
S11300800C9477000C9477000C9477000C94770010
S11300900C9477000C9477000C9477000C94770000
S11300A00C9477000C9477000C9477000C947700F0
S11300B00C94770011241FBECFEFD8E0DEBFCDBF74
S11300C011E0A0E0B1E0ECE3F5E002C005900D9290
S11300D0A636B107D9F721E0A6E6B1E001C01D922A
S11300E0A936B207E1F70E94D5010C949C020C9446
S11300F000000F931F93FB019C01A8EEB3E00E9444
S11301008D02AB01BC018F01000F111F20E030E014
S11301100CC0401B510B620B730B4098CF0101972D
S1130120F1F7409ACF010197F1F704171507260755
S1130130370778F31F910F91089566E777E080E918
S113014091E00E9479002FEF81EE94E021508040ED
S11301509040E1F700C0000060EE78E084EF91E0A9
S11301600E9479002FEF81EE94E02150804090406E
S1130170E1F700C000006EE27BE08CEB92E00E94AD
S113018079002FEF81EE94E0215080409040E1F718
S113019000C0000068EF79E088EE93E00E947900E7
S11301A02FEF81EE94E0215080409040E1F700C0B1
S11301B0000008959BB11BB8611105C0429A439891
S11301C04498459827C0613029F44298439A44984A
S11301D0459820C0623029F442984398449A45983F
S11301E019C06330B9F4429843984498459A12C0B0
S11301F08BB191914F5F5F4F292F30E0042E02C0E5
S1130200220F331F0A94E2F7282B2BB947305105EC
S113021079F7089597E0899FF0011124E45EFE4F79
S113022040E050E0E5CF42984398449845980895BB
S11302309BB11BB8611105C0429A439844984598F4
S113024027C0613029F44298439A4498459820C0C5
S1130250623029F442984398449A459819C063300F
S1130260B9F4429843984498459A12C08BB191913D
S11302704F5F5F4F292F30E0042E02C0220F331F3F
S11302800A94E2F7282B2BB94730510579F70895E2
S113029097E0899FF0011124E050FF4F40E050E0C7
S11302A0E5CF60E083E00E9418018FEC97E00197AE
S11302B0F1F700C0000061E082E00E9418018FECB9
S11302C097E00197F1F700C0000062E081E00E942E
S11302D018018FEC97E00197F1F700C0000063E08C
S11302E080E00E9418018FEC97E00197F1F700C0BD
S11302F000000895CF93DF93D0916601CDECDC9F8D
S1130300C12D1124C695C695C69561E08C2F0E9417
S1130310DA008FEC97E00197F1F700C00000CC0FF2
S11303208C2F880F880FC80F60E08D2F8C1B0E94C4
S1130330DA008FEC97E00197F1F700C00000DF913D
S1130340CF910895CF93DF93D0916501CDECDC9FDD
S1130350C12D1124C695C695C69563E08C2F0E94C5
S1130360DA008FEC97E00197F1F700C00000CC0FA2
S11303708C2F880F880FC80F62E08D2F8C1B0E9472
S1130380DA008FEC97E00197F1F700C00000DF91ED
S1130390CF9108958EEF8AB921988DE387B90E9491
S11303A0EF010E944302789408950E94CA01C1E0BB
S11303B080916201813021F030F0823049F0FACF2F
S11303C00E945101F5CF0E94A2010E947A01F0CF50
S11303D00E9413010E949D00C0936201E9CF82E054
S11303E084BD83E085BD89EF87BDEEE6F0E08081C2
S11303F08260808308951F920F920FB60F9211248A
S11304008F9331991DC080916801823030F48091BE
S113041068018F5F8093680118C080916401813006
S1130420A1F480916201813019F41092620105C037
S1130430811103C081E0809362011092640105C0C0
S11304401092680181E080936401199911C0809130
S11304506701823030F4809167018F5F8093670178
S11304600CC080916301813041F41092630105C096
S11304701092670181E0809363018F910F900FBE0A
S11304800F901F901895109280008DE0809381004A
S113049088E09DE39093890080938800EFE6F0E084
S11304A080818260808308951F920F920FB60F920D
S11304B011248F939F9380916201813031F48DE2F6
S11304C0809365011092660121C09091650191119C
S11304D018C080916601811109C08DE28093650185
S11304E01092660182E08093620110C08150809373
S11304F066010CC08BE38093660191509093650173
S113050005C0809166018111F1CFF4CF9F918F9145
S11305100F900FBE0F901F901895A29FB001B39F2C
S1130520C001A39F700D811D1124911DB29F700DF8
S10F0530811D1124911D0895F894FFCF43
S113053C010101000101010100000101010101019E
S113054C010101010000010100000101010101018F
S113055C0101000001010000000001010001010083
S113056C0101010101000001000101000001010170
S113057C000101000101010001010101010101015E
S113058C0000000001010101010101010101010050
S109059C01010101012D23
S9030000FC
